:100000000C94D4000C94FC000C94FC000C94FC00A8
:100010000C94FC000C94FC000C94FC000C94FC0070
:100020000C94FC000C94FC000C9449030C94BB034E
:100030000C94FC000C94FC000C94FC000C94FC0050
:100040000C94FC000C94FC000C94FC000C94FC0040
:100050000C94FC000C94FC000C94FC000C94FF022B
:100060000C94FC000C94FC000C94FC000C94FC0020
:100070000C94FC000C94FC000C94FC000C94FC0010
:100080000C94FC000C94FC000C94FC000C94FC0000
:100090000C94E7080C94FC000C94FC000C94FC00FD
:1000A0000C94FC000C94FC000C94FC000A080D0855
:1000B000FC07000804082E082E082E081108150851
:1000C00019081F0823082E082908080B000202023D
:1000D00001000904000001020200000524001001D3
:1000E0000524010101042402060524060001070578
:1000F000810310004009040100020A000000070506
:1001000002024000000705830240000004030904C6
:1001100012010002EF02014041234180000101026F
:10012000030141726475696E6F204C4C430041724B
:100130006475696E6F2059756E000000000025001F
:1001400028002B002E0031000404040404030405DD
:100150000202020204030202020206060606060664
:10016000040402020204040408020110408040104A
:1001700020408040800802040180402010020110CD
:100180008010204040200000000200090F00000302
:100190000401000C0000000000000000000000004E
:1001A000000000000000060D11241FBECFEFDAE0B2
:1001B000DEBFCDBF11E0A0E0B1E0ECE5FEE102C0A2
:1001C00005900D92AE38B107D9F724E0AEE8B1E062
:1001D00001C01D92A939B207E1F710E0C4EDD0E0EB
:1001E00004C02197FE010E94210FC33DD107C9F72A
:1001F0000E94150A0C942C0F0C94000040912603C9
:10020000509127032091240330912503421753076F
:10021000B4F49091E8009570E1F39091E80092FDBC
:1002200019C08093F10080912603909127030196D5
:100230008F739927892B19F48EEF8093E8008091B2
:10024000260390912703019690932703809326031A
:1002500081E0089580E00895CF92DF92EF92FF92BF
:100260000F931F93CF93DF931F92CDB7DEB7182F55
:10027000062FE42E862F880F8E5F99830E94FE0042
:1002800083E00E94FE00F12EC12E9981D92E8C2D83
:100290008F19801798F4F601E7FE02C0849101C01F
:1002A00080810E94FE00182F80E00E94FE008123C2
:1002B000FFEFCF1ADF0A8111EACF01C081E00F9072
:1002C000DF91CF911F910F91FF90EF90DF90CF9032
:1002D0000895DF92EF92FF920F931F93CF93DF93D6
:1002E000D82E8A017B01E40EF51EEB01CE15DF0549
:1002F00071F0D7FE03C0FE01849101C088810E9485
:10030000FE0021968111F2CF8FEF9FEF01C0C8014F
:10031000DF91CF911F910F91FF90EF90DF900895A3
:10032000615030F02091F100FC0120830196F8CF5C
:10033000289884E6809335030895CF92DF92EF9258
:10034000FF920F931F93CF93DF936C017A018B0180
:10035000C0E0D0E0CE15DF0589F0D8016D918D01A8
:10036000D601ED91FC910190F081E02DC601099537
:10037000892B11F47E0102C02196ECCFC701DF91D9
:10038000CF911F910F91FF90EF90DF90CF90089544
:10039000CF93DF931F92CDB7DEB76983DC01ED9178
:1003A000FC910280F381E02D41E050E0BE016F5FDF
:1003B0007F4F09950F90DF91CF91089583E080934F
:1003C000E9008091F200882319F08AE38093E80025
:1003D0000895FC018485958597FD0BC09FB7F8941F
:1003E00082E08093E9008091F2009FBF90E0019647
:1003F00008959FB7F89482E08093E9008091F2001D
:100400009FBF90E00895089580E090E008950F93D5
:100410001F93CF93DF931F92CDB7DEB782E089831E
:1004200042E450E06AEC70E080E80E9469010E94BA
:10043000D308DC0112960D911C911397011511053B
:1004400069F0D801ED91FC910280F381E02DBE01AD
:100450006F5F7F4FC801099597FF07C089810F9093
:10046000DF91CF911F910F910895F80100851185BB
:10047000E5CF8F929F92AF92BF92CF92DF92EF9291
:10048000FF920F931F93CF93DF936C015B017A016F
:1004900080910B01882309F456C08091360388238C
:1004A00009F451C080912A0380FF05C08091E000CB
:1004B00082608093E000E70110E00AEF83E0882E7D
:1004C0009AE3992E2097B1F10E94A808811105C0E6
:1004D0000150C9F10E94B908F5CF282F30E0C217AA
:1004E000D3070CF48C2F4FB7F8948092E9009091C9
:1004F000E80095FF1DC0282F30E0C21BD30BF5018B
:10050000982F915020F081918093F100FACFA20EA4
:10051000B31E112319F09092E80009C08091E80001
:1005200085FD06C09092E80011E0209709F010E0E8
:100530004FBFC8CF1111C8CF5D9884E680932B03BD
:100540001E141F0444F081E090E0F601938382833F
:1005500080E090E001C0C701DF91CF911F910F9122
:10056000FF90EF90DF90CF90BF90AF909F908F90D3
:1005700008950E94A80890E00895CF93DF931F92FA
:10058000CDB7DEB7FC018485958597FD05C02FEFBB
:100590003FEF358724870BC0CE0101960E947E086D
:1005A000019719F4898190E002C08FEF9FEF0F90BF
:1005B000DF91CF9108950F931F93CF93DF931F92F5
:1005C000CDB7DEB78C01FC018485958597FF0EC001
:1005D000CE0101960E947E08019719F4298130E02E
:1005E00002C02FEF3FEFF80135872487F80184859B
:1005F00095850F90DF91CF911F910F9108951F92D4
:100600000F920FB60F9211242F933F938F939F93C6
:10061000AF93BF9380912D0390912E03A0912F0350
:10062000B091300330912C0323E0230F2D3720F4B9
:100630000196A11DB11D05C026E8230F0296A11D3C
:10064000B11D20932C0380932D0390932E03A09330
:100650002F03B09330038091310390913203A09126
:100660003303B09134030196A11DB11D8093310372
:1006700090933203A0933303B0933403BF91AF91AF
:100680009F918F913F912F910F900FBE0F901F90D0
:1006900018951F920F920FB60F9211248F939F936C
:1006A0008091E1009091E100937F9093E10083FFBE
:1006B0000FC01092E90091E09093EB001092EC00D3
:1006C00092E39093ED001092360398E09093F0003F
:1006D00082FF20C093E09093E9009091F20099236B
:1006E00019F09AE39093E80090912B03992339F045
:1006F00090912B03915090932B03992389F1909122
:100700003503992339F09091350391509093350337
:10071000992341F184FF10C08091E2008E7E8160B8
:100720008093E2008091E1008F7E8093E1008091D0
:100730002A038E7E806111C080FF16C08091E20086
:100740008E7E80618093E2008091E1008E7E8093B6
:10075000E10080912A038E7E816080932A0304C089
:100760005D9ACDCF289AD6CF9F918F910F900FBED3
:100770000F901F9018951F920F920FB60F92112491
:10078000CF92DF92EF92FF920F931F932F933F939D
:100790004F935F936F937F938F939F93AF93BF9389
:1007A000EF93FF93CF93DF93CDB7DEB76C97DEBFA8
:1007B000CDBF1092E9008091E80083FFEDC168E0B1
:1007C000CE0145960E94900182EF8093E8008D89CA
:1007D00087FF05C09091E80090FFFCCF03C09EEF1B
:1007E0009093E800982F907609F0C6C09E892F89D3
:1007F000188D91110CC0803829F4809129038093C1
:10080000F10002C01092F1001092F10048C1422F95
:1008100050E0512B913051F4811141C141305105CB
:1008200009F03DC1809129038D7F0BC0933061F4A5
:10083000811135C14130510509F031C18091290341
:100840008260809329032BC1953041F48091E800A8
:1008500080FFFCCF20682093E30021C1963009F08F
:100860005FC0EB8CFC8C1092E90010922703109271
:100870002603123091F510922503109224030E9452
:10088000070299E0BE016F5F7F4FDB01E92F1D92E8
:10089000EA95E9F799831A8391E09E8390EA988715
:1008A0009AEF99872091260330912703275F3F4FC6
:1008B0003C832B838D831092E900109227031092C2
:1008C0002603F0922503E092240349E050E080E003
:1008D0000E9469010E940702E2C0F0922503E092A3
:1008E00024030E94D308DC011296ED90FC9013972C
:1008F000E114F10409F4C0C0D701ED91FC9104802A
:10090000F581E02DBE016B5E7F4FC7010995009711
:1009100019F00CF0C4C0C7C0F701E084F184E8CF3F
:10092000973009F4C0C0983021F481E08093F10041
:10093000B6C0993009F0B3C0837009F0B4C0EDE0DF
:10094000F1E081E021E036E39081992361F080932A
:10095000E9002093EB0091919093EC003093ED002F
:100960008F5F873089F78EE78093EA001092EA0064
:100970008F898093360393C08B8D9C8D1092E900F4
:10098000109227031092260390932503809324034B
:10099000898D811156C08E899D89913A59F4813291
:1009A00009F081C047E050E064E071E080E00E941F
:1009B000690175C0913209F076C0833289F4888D5F
:1009C00090E0982F88272F89822BA0E0B0E08093B9
:1009D000000190930101A0930201B09303015FC055
:1009E000803269F48091E80082FFFCCF67E084E008
:1009F00091E00E9490018BEF8093E80006C0823264
:100A000009F04DC08F8980930B01809128038823C2
:100A100019F0EEEFFAE002C0E0E0F8E080910401A6
:100A200090910501A0910601B0910701803B94408F
:100A3000A105B10509F07BC080910B0180FF93C037
:100A400076C00E94D308DC0112960D911C91139779
:100A50000115110541F1D801ED91FC910190F08152
:100A6000E02DBE016B5E7F4FC8010995811117C053
:100A7000F80100851185ECCF113009F44EC0133018
:100A800091F48F89882309F445C0823081F440E8CD
:100A90006BE08EE291E00E942C01882321F08EEF22
:100AA0008093E80079C081E28093EB0075C08130CB
:100AB00029F440E86BE082E291E0EDCF833099F7D2
:100AC0000E94D308DC011296ED90FC9013978E01E2
:100AD0000F5F1F4F6801E114F10479F0D701ED9128
:100AE000FC910680F781E02DB801C7010995080F38
:100AF000111DF701E084F184EECFD8011C92F601BC
:100B000001900020E9F73197BF016C197D0940E0A1
:100B1000C601C1CF6CE071E002C060E171E0611517
:100B2000710509F2FB01449150E080E840CF0FB617
:100B3000F894A8958091600088618093600010927D
:100B400060000FBEA895EE3F2AE0F20739F08091D1
:100B5000FE0A9091FF0A91838083A1CF1092FF0A31
:100B60001092FE0A9CCFEE3F8AE0F80731F08081B8
:100B700091819093FF0A8093FE0A87E797E791831C
:100B800080839BE088E10FB6F894A895809360007D
:100B90000FBE9093600083CF6C960FB6F894DEBFC3
:100BA0000FBECDBFDF91CF91FF91EF91BF91AF917C
:100BB0009F918F917F916F915F914F913F912F9175
:100BC0001F910F91FF90EF90DF90CF900F900FBE8D
:100BD0000F901F90189585ED8093BC008091BC000C
:100BE00084FDFCCF10925B03089540912404262FCE
:100BF00030E0240F311D21323105DCF420915B03FC
:100C00002430C9F4FC0180E090E0861758F430915C
:100C100024042191DC01AE5FBB4FA30FB11D2C93C7
:100C20000196F3CF80912404680F6093240480E040
:100C3000089581E0089582E008950895E0913803D1
:100C400080913703E81730F4F0E0E75CFC4F8081D7
:100C500090E008958FEF9FEF089590913803809171
:100C60003703981750F4E92FF0E0E75CFC4F208140
:100C700030E09F5F9093380302C02FEF3FEFC90130
:100C800008958091370390E020913803821B9109E9
:100C90000895CF92DF92EF92FF920F931F93CF931D
:100CA000DF937C01262F972F8A0180915C03882394
:100CB00091F0C62FD72F6E01C40ED51ECC15DD05C1
:100CC00071F06991D701ED91FC910190F081E02DD7
:100CD000C7010995F3CF642F822F0E94F505C80143
:100CE000DF91CF911F910F91FF90EF90DF90CF9008
:100CF0000895CF93DF931F92CDB7DEB7698320911C
:100D00005C032223D1F020915F03203240F021E0E8
:100D100030E0FC013383228380E090E015C08091B5
:100D20005D03E82FF0E0E758FB4F998190838F5FD8
:100D300080935D0380935F0305C061E0CE0101965F
:100D40000E94F50581E090E00F90DF91CF9108952A
:100D50003FB7F8948091310390913203A09133030F
:100D6000B091340326B5A89B05C02F3F19F001961A
:100D7000A11DB11D3FBFBA2FA92F982F8827820F21
:100D8000911DA11DB11DBC01CD0142E0660F771F71
:100D9000881F991F4A95D1F708950E94270F382F71
:100DA00020915F0390915E03213208F049C0809149
:100DB0005B038111FCCF42E040935B0330935A0305
:100DC0003FEF309378041092770420937604A9E7DC
:100DD000B4E046E554E0FA013E2F341B321718F414
:100DE0003D913193F9CF1092550420915504990FFC
:100DF000922B9093550490915903913061F4109285
:100E00005903909155049093BB009091BC0093FDC1
:100E1000F8CF95EC01C095EE9093BC0090915B03E8
:100E20009230E1F3909178049F3F79F080917804BB
:100E3000803241F080917804803331F084E005C045
:100E400081E003C082E001C083E010925D03109254
:100E50005F0310925C030895CF93C62F91E09093A7
:100E60005C0397E590935E0310925D0310925F031D
:100E7000682F80E693E00E9479066C2F80E693E06D
:100E80000E94790681E0CF910C94CF0690915B038C
:100E90009111FCCF91E090935B0390935A032FEF55
:100EA0002093780410927704260F20937604909371
:100EB000550490915504880F892B80935504809197
:100EC0005903813061F41092590380915504809345
:100ED000BB008091BC0083FDF8CF85EC01C085EE9E
:100EE0008093BC0080915B038130E1F380917704B3
:100EF000861710F460917704A6E5B4E029E333E0A7
:100F0000F9018E2F821B861718F48D918193F9CFEA
:100F1000862F089591E090935C0397E590935E038C
:100F200010925D0310925F03682F80E693E00E94A9
:100F3000790680E00E94CF0661E087E50E944607BF
:100F4000109238038093370380E693E00E942D06C9
:100F5000089587E00E948A07837E682F646087E097
:100F60000C942C0787E00E948A07682F636087E053
:100F70000C942C07BC01009791F0FC01019000201B
:100F8000E9F73197AF01481B590BE0916C03F091E1
:100F90006D030280F381E02D8CE693E0099480E0FC
:100FA00090E00895CF93DF930E94BA07EC018FE79A
:100FB00091E00E94BA078C0F9D1FDF91CF91089599
:100FC00090E0FC01EA57FE4F4491FC01E959FE4FC5
:100FD0002491FC01E85BFE4F8491882309F44CC006
:100FE0004423E1F150E0FA013197EF30F105B0F51B
:100FF000EA5AFF4F0C94210F909180009F7707C011
:10100000909180009F7D03C090918000977F909386
:10101000800024C094B59F7702C094B59F7D94BD95
:101020001DC0909190009F7707C0909190009F7D88
:1010300003C090919000977F909390000FC0909183
:10104000C0009F7703C09091C0009F7D9093C00027
:1010500005C09091C200977F9093C200E82FF0E006
:10106000EE0FFF1FE65CFE4FA591B4918FB7F89489
:10107000EC912E2B2C938FBF08958F929F92AF925D
:10108000BF920F931F93CF93DF93CDB7DEB7A19796
:101090000FB6F894DEBF0FBECDBF19A2423008F4E0
:1010A0004AE08E010F5D1F4F842E912CA12CB12C94
:1010B000A50194010E94FF0EE62FB901CA0101505B
:1010C0001109EA3014F4E05D01C0E95CD801EC9349
:1010D000232B242B252B61F7C8010E94BA07A19668
:1010E0000FB6F894DEBF0FBECDBFDF91CF911F9139
:1010F0000F91BF90AF909F908F900895FC018091C9
:101100003603811103C08FEF9FEF08959FB7F894C6
:1011100082E08093E9002091F20030E0121613067D
:1011200014F421E030E02115310559F0289884E6C7
:10113000809335038091F10080838091F2008823B1
:1011400019F09FBFC90108958BE68093E800F9CF9D
:101150002FB7F89483E08093E9009091E800892FFD
:10116000807295FF04C09091F20080E4891B2FBF2C
:101170000895CF92DF92EF92FF920E94A8066B0132
:101180007C010E94A806DC01CB018C199D09AE09E7
:10119000BF09883E9340A105B10598F3FF90EF90F9
:1011A000DF90CF90089580914D0481110DC082E0B1
:1011B0008093490484E080934A0410924C04109276
:1011C0004B0481E080934D0489E494E008951F92DC
:1011D0000F920FB60F9211242F933F934F935F936B
:1011E0006F937F938F939F93AF93BF93EF93FF93EF
:1011F0008091B900887F803609F49CC068F58832F8
:1012000009F45BC090F4803109F454C038F48823A9
:1012100009F4F6C0883009F44DC0F6C0883109F4ED
:101220004CC0803209F45DC0EFC0803409F468C05E
:1012300048F4803309F455C0883309F0E5C0809341
:101240007804D8C0803509F44FC0883509F45DC0F2
:10125000883409F0D9C0D6C0883909F4C7C0A8F4C9
:10126000883709F467C038F4883609F463C08037DA
:1012700009F460C0C9C0883809F4B8C0803909F4DD
:101280005FC0803809F0C0C05BC0803B09F486C0F5
:1012900038F4803A09F466C0883A09F47FC0B4C0D3
:1012A000803C09F4A7C0883C09F4A4C0883B09F439
:1012B0008AC0AAC08091550410C090917704809193
:1012C0007604981770F5E091770481E08E0F809393
:1012D0007704F0E0EA5AFB4F80818093BB0085ECF5
:1012E00086C0809378048EC0E091770481E08E0FF1
:1012F000809377048091BB00F0E0EA5AFB4F808333
:1013000090917704809176046EC0E091770481E03B
:101310008E0F809377048091BB00F0E0EA5AFB4F78
:10132000808380915A0381116DC081E080935903BD
:1013300084EA61C083E080935B0310924804CFCFBE
:1013400080914804803208F051C0E091480481E067
:101350008E0F809348048091BB00F0E0E85DFB4F66
:101360008083BDCF85EC8093BC0010925B0380919D
:101370004804803230F4E0914804F0E0E85DFB4F2F
:1013800010826091480470E0E0912604F0912704F7
:1013900088E294E009951092480436C084E0809376
:1013A0005B031092250410922404E0912204F09132
:1013B0002304099580912404811105C081E0809364
:1013C000240410920204E091250481E08E0F8093A2
:1013D0002504F0E0EE5FFB4F80818093BB0090918D
:1013E000250480912404981708F479CF85E8809328
:1013F000BC000AC085EC8093BC0010925B0304C063
:10140000109278040E94EB05FF91EF91BF91AF918C
:101410009F918F917F916F915F914F913F912F910C
:101420000F900FBE0F901F901895CF93DF93CDB7FD
:10143000DEB7C054D1090FB6F894DEBF0FBECDBFE2
:10144000789484B5826084BD84B5816084BD85B59F
:10145000826085BD85B5816085BD80916E008160AB
:1014600080936E0010928100809181008260809351
:101470008100809181008160809381008091800053
:1014800081608093800080919100826080939100C0
:1014900080919100816080939100809190008160A3
:1014A000809390008091C10084608093C1008091FE
:1014B000C10082608093C1008091C10081608093EF
:1014C000C1008091C30081608093C3008091C000FF
:1014D00082608093C0008091C20081608093C200CE
:1014E00080917A00846080937A0080917A00826093
:1014F00080937A0080917A00816080937A00809155
:101500007A00806880937A00109236031092290343
:1015100010922A038091D70081608093D70080EADF
:101520008093D80089B5806189BD89B5826089BD05
:1015300009B400FEFDCF0E94B9088091D8008F7CCD
:1015400080618093D8008091E000807F8093E000EC
:101550008091E1008E7E8093E1008DE08093E20037
:10156000559A209AEEEFFFE7859194918B3F9C4D21
:1015700019F481E0809328038FEF9FEF9093790314
:101580008093780387E391E00E94BA0710923803B2
:101590001092370310925D0310925F0310925B0369
:1015A00081E080935A031092590382E00E94E00781
:1015B00083E00E94E0078091B9008E7F8093B9009C
:1015C0008091B9008D7F8093B90088E48093B80042
:1015D00085E48093BC008CE08093B8008FEF0E947C
:1015E0008A07813109F00DC262E086E00E942C0773
:1015F0000E94B2070E94A9076FEF89E00E942C07A2
:1016000087E00E948A07682F606487E00E942C07A9
:101610008FE491E00E94D20787E591E00E94D20713
:1016200063E086E00E942C076FEF89E00E942C07A0
:101630000E94B2070E94A90787E00E948A07682FCC
:10164000606487E00E942C0760E082E00E942C0723
:1016500060E084E00E942C0760E083E00E942C0799
:1016600018EF812E13E0912E66246394B7E57B2E4C
:101670008FB7F894C0902D03D0902E03E0902F03E5
:10168000F09030038FBF00E010E080918E019091C8
:101690008F01019709F4E7C082E00E948A07B82E03
:1016A00084E00E948A07B81A8B2D8F70B82E41F4FF
:1016B0008091000490910104009709F4C3C089C08F
:1016C00060925C0370925E0310925D0310925F0360
:1016D00065E080E693E00E94790680E00E94CF06F4
:1016E0006B2D660F660F613208F060E287E50E949D
:1016F00046071092380380933703A12C909137034B
:1017000080913803981781F0552453945A0C80E641
:1017100093E00E942D06E1E0F0E0EC0FFD1FEA0DE2
:10172000F11D8083A52CEACFE091FE03F091FF0329
:101730004091FC035091FD03CE0104962C0160E022
:10174000C2010397DC012C9130E0322F2227019651
:10175000DC018C91282BC2010197DC018C9190E077
:10176000982F8827D2017C91872B3496B3E0EC3FE9
:10177000FB0711F4ECEBF3E0318320839383828346
:1017800080910004909101048031910549F44C5FEF
:101790005F4F23E04C3F520769F44CEB53E00AC023
:1017A0009C012F5F3F4F3093010420930004892B4D
:1017B00009F4AF016F5F34E0430E511C6B11C0CFD1
:1017C0005093FD034093FC03F093FF03E093FE036B
:1017D0006FCFE091FE03F091FF039F012450310988
:1017E0003093FF032093FE03408151816281738116
:1017F0002C5B334020F49092FF038092FE0301970C
:101800009093010480930004509323034093220398
:101810007093210360932003C801880F991F880FDC
:10182000991FFC01E057FE4F5F01BA0180E090E094
:101830000E94D60DD5016D937D938D939C93139744
:101840000F5F1F4F2FB7F89480912D0390912E03B7
:10185000A0912F03B09130032FBF8C199D09843FB5
:1018600091400CF412CF00E911E0F7E0003D1F07B2
:1018700009F4B5C0F801C190D190E190F1908F01C9
:10188000A7019601C701B6010E94FA0E882319F03C
:1018900083E791E01AC016012701E89457F82FEF6B
:1018A0003FEF4FE75FE7C201B1010E94FA0E8111DD
:1018B0000FC02FEF3FEF4FE75FE7C201B1010E947A
:1018C000A20D18162CF487E791E00E94BA0782C097
:1018D0002FEF3FEF4FE75FE4C701B6010E94880E8C
:1018E00018161CF48BE791E0F0CF2FEF3FEF4FE796
:1018F0005FECC701B6010E94A20D87FDF3CF20E087
:1019000030E0A901C701B6010E94A20D87FF0FC0F8
:10191000E0916C03F0916D030190F081E02D6DE298
:101920008CE693E00995F7FAF094F7F8F0942AE042
:1019300037ED43EA5BE3C701B6010E94360D1B0198
:101940002C010E94A70D6B017C010E94D60D9B010A
:10195000AC01C201B1010E94350D1B012C014AE00E
:10196000C701B6010E943D08E0916C03F0916D0340
:101970000190F081E02D6EE28CE693E0099520E085
:1019800030E040E251E4C201B1010E948D0E1B0122
:101990002C010E94A70D6B01E12CF12C4AE0C7013C
:1019A000B6010E943D08C701B6010E94D60D9B01F9
:1019B000AC01C201B1010E94350D20E030E040E2EF
:1019C00051E40E948D0E0E94A70D80E090E04AE055
:1019D0000E943D088FE791E00E94BA0746CF82E857
:1019E00091E00E94D20781E090E090938F01809374
:1019F0008E0180E090E0892B09F43ACE0E9400002D
:101A000033CE86E891E00E94D207FFCFE0E6F3E014
:101A10001382128288EE93E0A0E0B0E08483958385
:101A2000A683B78327E131E031832083ECE6F3E03E
:101A30001382128284839583A683B78389E291E01F
:101A4000918380838FEF9FEF958784878CEB93E062
:101A50009093FD038093FC039093FF038093FE0318
:101A6000109201041092000408955058BB27AA2731
:101A70000E944D0D0C944E0E0E94400E38F00E94B4
:101A8000470E20F039F49F3F19F426F40C943D0ED4
:101A90000EF4E095E7FB0C94370EE92F0E945F0EE1
:101AA00058F3BA17620773078407950720F079F493
:101AB000A6F50C94810E0EF4E0950B2EBA2FA02DF6
:101AC0000B01B90190010C01CA01A0011124FF27EB
:101AD000591B99F0593F50F4503E68F11A16F040E6
:101AE000A22F232F342F4427585FF3CF46953795E5
:101AF0002795A795F0405395C9F77EF41F16BA0BAA
:101B0000620B730B840BBAF09150A1F0FF0FBB1F57
:101B1000661F771F881FC2F70EC0BA0F621F731FA0
:101B2000841F48F4879577956795B795F7959E3FFD
:101B300008F0B0CF9395880F08F09927EE0F97958E
:101B4000879508950E94130E08F481E008950E947D
:101B5000670E88F09F5798F0B92F9927B751B0F0CA
:101B6000E1F0660F771F881F991F1AF0BA95C9F721
:101B700014C0B13091F00E94810EB1E008950C9430
:101B8000810E672F782F8827B85F39F0B93FCCF3E3
:101B9000869577956795B395D9F73EF4909580959E
:101BA000709561957F4F8F4F9F4F0895E89409C0BE
:101BB00097FB3EF490958095709561957F4F8F4F80
:101BC0009F4F9923A9F0F92F96E9BB279395F69596
:101BD000879577956795B795F111F8CFFAF4BB0F14
:101BE00011F460FF1BC06F5F7F4F8F4F9F4F16C078
:101BF000882311F096E911C0772321F09EE8872F02
:101C0000762F05C0662371F096E8862F70E060E0BD
:101C10002AF09A95660F771F881FDAF7880F969536
:101C2000879597F90895990F0008550FAA0BE0E8DA
:101C3000FEEF16161706E807F907C0F0121613068E
:101C4000E407F50798F0621B730B840B950B39F4CE
:101C50000A2661F0232B242B252B21F408950A2634
:101C600009F4A140A6958FEF811D811D089597F974
:101C70009F6780E870E060E008959FEF80EC089532
:101C800000240A941616170618060906089500245B
:101C90000A9412161306140605060895092E0394D5
:101CA000000C11F4882352F0BB0F40F4BF2B11F449
:101CB00060FF04C06F5F7F4F8F4F9F4F089557FDA8
:101CC0009058440F551F59F05F3F71F04795880FAA
:101CD00097FB991F61F09F3F79F087950895121641
:101CE00013061406551FF2CF4695F1DF08C01616ED
:101CF00017061806991FF1CF86957105610508949E
:101D00000895E894BB2766277727CB0197F90895B4
:101D10000E94130E08F48FEF08950E94A00E0C94F9
:101D20004E0E0E94400E38F00E94470E20F0952380
:101D300011F00C94370E0C943D0E11240C94820E6D
:101D40000E945F0E70F3959FC1F3950F50E0551FF1
:101D5000629FF001729FBB27F00DB11D639FAA2700
:101D6000F00DB11DAA1F649F6627B00DA11D661F4F
:101D7000829F2227B00DA11D621F739FB00DA11D70
:101D8000621F839FA00D611D221F749F3327A00D2A
:101D9000611D231F849F600D211D822F762F6A2FC6
:101DA00011249F5750409AF0F1F088234AF0EE0F2B
:101DB000FF1FBB1F661F771F881F91505040A9F758
:101DC0009E3F510580F00C94370E0C94820E5F3FBD
:101DD000E4F3983ED4F3869577956795B795F79594
:101DE000E7959F5FC1F7FE2B880F911D969587950C
:101DF00097F908950E94130E880B990B0895A1E29C
:101E00001A2EAA1BBB1BFD010DC0AA1FBB1FEE1F74
:101E1000FF1FA217B307E407F50720F0A21BB30BBF
:101E2000E40BF50B661F771F881F991F1A9469F73B
:101E300060957095809590959B01AC01BD01CF0197
:101E40000895EE0FFF1F0590F491E02D099481E0B5
:0C1E500090E0F8940C942C0FF894FFCF55
:101E5C00FFFFFFFF00E100000000000000C18081D7
:101E6C00000000000000007906490604021D06412E
:101E7C00062D061E0600000000C8013902B902DE5C
:101E8C0001E901BD02DB02496E697469616C697A12
:101E9C00696E67204D415833303130302E2E00534F
:101EAC00554343455353004D415833303130302066
:101EBC00485220616E642053704F322053656E730C
:101ECC006F72006E616E00696E66006F7666000D53
:0E1EDC000A00656E64004641494C4544000012
:00000001FF
